:040000000C949F00BD
:100004000C9400000C9400000C9400000C9400006C
:100014000C9400000C9400000C9400000C9400005C
:100024000C9400000C9400000C9400000C9400004C
:100034000C9400000C9400000C9400000C9400003C
:100044000C9400000C9400000C9400000C943502F5
:100054000C9400000C9400000C9400000C9400001C
:100064000C9400000C9400000C9400000C9400000C
:100074000C9400000C9400000C9400000C940000FC
:100084000C9400000C9400000C9400000C940000EC
:100094000C9400000C9400000C9400000C940000DC
:1000A4000C9400000C9400000C9400000C940000CC
:1000B4000C9400000C9400000C9400000C940000BC
:1000C4000C9400000C9400000C9400000C940000AC
:1000D4000C9400000C9400000C9400000C9400009C
:1000E400010000007600F000F000F700EF00E700E8
:1000F400CF00F300C700E300FD00FB00F900F100AE
:10010400FE00FC00BF00DF009F008F007F003F0067
:1001140058006C006700560055004A005100490021
:1001240004000300E4000500110AE8002500160A93
:10013400EE000F003E0A14010000F894EE27EFBB16
:10014400F1E0F5BFE5BFE0937400E09375008DE046
:10015400A2E0BB27ED938A95E9F780E090E2A0E066
:10016400B2E0ED930197E9F7E4E2F1E0859195912E
:10017400009761F0A591B59105901590BF01F0012C
:1001840005900D920197E1F7FB01F0CF8BBF8CBF77
:10019400E0E0EEBBEFEFEDBFE1E2EEBFC0E0DAE09E
:1001A4000C94F502BA93AA93A2D22E813F81AE8118
:1001B400BF81ECE0A8D2E070F077DF01EC81FD8133
:1001C400C4D2E07FFF70EA2BFB2B8F01D80103D050
:1001D40095D22896089589D2AD0110E020E030E050
:1001E4003CD2E0910B01EF7DE0930B0185E08A9511
:1001F400F1F720E130E0002402160306BCF4E22FFC
:10020400E150DA0191D2E1701E2F113021F4E09116
:100214000B01E06805C0103029F4E0910B01EF7781
:10022400E0930B011AD221503040E5CF27D2C9C048
:100234001A930A9300E010E0E1B1EF61E1B9E0E064
:10024400E7B9E0EEE0930A01E0910B01EF7BE09364
:100254000B0114D2149A9D9A6B9AE0E0E4BBEEB9B8
:10026400E1E2E4BDE5E0E5BDE0E0E6BDE8BDE1E8EE
:10027400E0939000E5E0E0939100E0E0E0939400E7
:10028400E0939500E0939900E0939800A0E0B0E932
:10029400A2DF00E010E00830E0E01E075CF41A93EF
:1002A4000A93F801AEE3BAE0EFD1DF017BDF0F5F21
:1002B4001F4FF1CFA4E1B0E051D232C11A930A9397
:1002C4008D01F801E130A0E0FA0731F4109A119899
:1002D400A59A1298139A20C0E230A0E0FA0731F4EC
:1002E4001098119AA59A1298139A16C0E330A0E0B8
:1002F400FA0769F0E430A0E0FA0729F4109811989D
:10030400A59A129808C0E530A0E0FA0731F4109AD3
:100314001198A59A129A1398739A02C1E6D120E013
:1003240030E050E056B1A5E0B0E018D200E010E0B3
:100334000431E0E01E0774F4F801A6E1BAE0A4D1A8
:10034400A52FB0E0EA17FB0711F4980103C00F5F73
:100354001F4FEECFA4E0B0E0B1DF2730E0E03E076E
:1003640044F4A1E0B0E0AADFE8E2E8BDE09398003D
:1003740028C02B30E0E03E071CF4A2E08CD121C061
:100384002D30E0E03E071CF4A2E08CD11AC02131EC
:10039400E0E03E071CF4A3E07ED113C02331E0E08B
:1003A4003E071CF4A3E07ED10CC0E3E1F0E0E217C9
:1003B400F30739F4B8D07DD12C9AECE5F1E13E2E67
:1003C4004F2E9AD126960895EEEFEDB9E0E0E09332
:1003D400C000E8E1E093C100E6E0E093C200E0E0A1
:1003E400E093C500E8E0E093C400EAB9E0E0E093FC
:1003F400C800E8E1E093C900E6E0E093CA00E0E069
:10040400E093CD00E8E0E093CC00EFEFE4B9089589
:100414001A931A2FE091C000E072E1F31093C60022
:10042400E091C000E062E093C0001BC01A931A2F51
:10043400E091C800E072E1F31093CE00E091C800AF
:10044400E062E093C8000DC01A93E091C800E07820
:10045400E1F31091CE00E091C800E068E093C80099
:10046400E12F199108950A921A92FA926A937A9353
:100474008A939A93AA93BA93EA93FA93EFB7EA9377
:100484001A930A9321D100E010E00131E0E01E0745
:1004940064F4F801E050F64FFF93EF93D5DFAF918A
:1004A400BF91EC930F5F1F4FF0CF09911991E99120
:1004B400EFBFF991E991B991A991999189917991B4
:1004C4006991F990199009901895E1E0E0936F0013
:1004D400E0E0E0938000E5E0E0938100F5D0E0E027
:1004E400E6BB789408951A930A9308E010E00D305F
:1004F400E0E01E07ACF4EFD0AC91A53140F4EBD0B2
:10050400EC91EA3020F0E7D0AC91A03009F405C0BA
:10051400E2E0F0E03E2E4F2E03C00F5F1F4FE7CF07
:10052400099119910895E0E0E0930201E0E4E09379
:100534000101E0E0E0930201E0E1E0930A01E0E080
:10054400E0930B01A4E1B0E009D10895A32D60DF8D
:1005540077248824A4E0B0E0B1DEE5DFC1D0A9D0DF
:10056400A8EEB3E0FBD0E0910201EF7BE09302013F
:10057400E0910B01EF7EE0930B01A5E0B0E09EDE7D
:1005840057DEE3E0F0E0E715F80561F12197E6B105
:10059400E883E72DF82D309741F4A881AF3F21F48B
:1005A400E1E0F0E07E2E8F2E04C0E130A0E0FA07F7
:1005B40041F4ECE8E8BDE0939800072C082881F0AA
:1005C40004C0E230A0E0FA0759F4A881A73E41F440
:1005D400E3E0F0E07E2E8F2E83D0A4E0B0E06EDE68
:1005E4002196CFCF08959FDF23DEEEDE6EDF00E09D
:1005F40010E00530E0E01E074CF4A1E1BAE0A00FE2
:10060400B11FAC9113DF0F5F1F4FF3CFA4EFB1E025
:10061400A5D0ECE5F1E1E315F405A9F064DFA32D21
:10062400F7DEE32DF42DE230A0E0FA0731F48EDF9B
:10063400E1E0F0E03E2E4F2E05C0E130A0E0FA07E5
:1006440009F46CDEE6CFA8EBBBE088D0E0E0E093F1
:100654000B01E0930201E5B9FFCFE0910B01E064E7
:10066400E0930B0185E08A95F1F7E0910B01EF7BB4
:10067400E0930B0185E08A95F1F70895E0910B0171
:10068400E062E0930B010895EE0FFF1FAE0FBF1F52
:10069400ED91FD910895B0E011DEEAEAE8BDE09342
:1006A40098000895B0E00ADEECEDE8BDE093980010
:1006B4000895E0910201E064E0930201E0910B01EE
:1006C400E061E0930B010895E1EEE0938500ECE72F
:1006D400E09384000895A0E0BAE0A00FB11F08954C
:1006E400E0E0E8BDE093980008955A934A933A9362
:1006F4002A931A930A9308955D814C813B812A8140
:10070400198108810895EE230E2EE8E01E2EFD01C6
:1007140051F0011420F0FE2FE0E0011821F0EE0F5B
:10072400FF1F0A94E1F70895EE230E2EE8E01E2E33
:10073400FD0151F0011420F0EF2FF0E0011821F039
:10074400F695E7950A94E1F70895EE0FFF1FEE0F73
:10075400FF1FEE0FFF1FEE0FFF1F0895109639F0D5
:10076400A89580EA9FE00197F1F71197C9F70895DA
:00000001FF
